:100000000C9464000C948C000C948C000C948C0068
:100010000C948C000C948C000C948C000C948C0030
:100020000C948C000C948C000C948C000C948C0020
:100030000C948C000C948C000C948C000C948C0010
:100040000C94F8050C948C000C9420090C946E0907
:100050000C948C000C948C000C948C000C948C00F0
:100060000C948C000C948C000000000024002700ED
:100070002A0000000000250028002B0000000000DE
:1000800023002600290004040404040404040202DA
:100090000202020203030303030301020408102007
:1000A0004080010204081020010204081020000012
:1000B0000007000201000003040600000000000029
:1000C0000000D400DA0ACD0011241FBECFEFD8E023
:1000D000DEBFCDBF11E0A0E0B1E0ECE7F9E102C086
:1000E00005900D92AA32B107D9F712E0AAE2B1E069
:1000F00001C01D92A330B107E1F710E0C6ECD0E0DB
:1001000004C02297FE010E94AD0CC23CD107C9F782
:100110000E94300B0C94B10C0C9400000F93DF93F1
:10012000CF93CDB7DEB728970FB6F894DEBF0FBEDA
:10013000CDBF81309105C1F46F5F7F4F21F5DE01A6
:100140001196E6E0F1E088E001900D928150E1F730
:100150008AE291E0BE016F5F7F4F48E020ED37E01B
:1001600006E00E94D5050FC0892B69F46F5F7F4FB1
:1001700051F482E191E090932B0180932A018AE26D
:1001800091E00E947F0128960FB6F894DEBF0FBE63
:10019000CDBFCF91DF910F91089580E090E06FEF98
:1001A0007FEF0E948E00089581E090E06FEF7FEF77
:1001B0000E948E0008950F931F93CF93DF938AE2DE
:1001C00091E06AE371E041E020E00E9402038C01CB
:1001D000CAE3D1E0699179918DED91E04AE050E078
:1001E0000E94210C8DED91E069E00E946A0B81E094
:1001F000CA34D80779F78DED91E0B8014AE050E0B4
:100200000E94320C62E370E080E090E00E9466069B
:10021000DF91CF911F910F910895CF93DF9364EFFA
:1002200071E080E090E00E9466068DE061E00E944F
:10023000040786E061E00E9404078DE061E00E940F
:100240004307C0E0D0E08AE291E061E00E947705D8
:100250002196C436D105B9F78DE060E00E944307CE
:100260008DED91E040E855E260E070E00E94A90960
:10027000C0E0D0E0E0912C01F0912D01EC0FFD1FCA
:10028000608171818DED91E04AE050E00E94210C87
:100290008DED91E060E20E946A0B2296C031D1059B
:1002A00049F78DED91E00E94720BC0E0D0E0E09143
:1002B0002E01F0912F01EC0FFD1F608171818DEDFA
:1002C00091E04AE050E00E94210C8DED91E060E267
:1002D0000E946A0B2296C031D10549F78DED91E05D
:1002E0000E94720B8DED91E00E94720B68EE73E03C
:1002F00080E090E00E946606DF91CF910895CF9351
:10030000DF93EC0188E191E0998388838A859B855E
:10031000009711F00E9487088C819D81009711F051
:100320000E94870888859985009711F00E948708A8
:100330008A819B81009711F00E9487088E819F819E
:10034000009711F00E948708DF91CF910895CF9315
:10035000DF93EC018D858F3F59F061E00E94040727
:100360008D8561E00E94430788EC90E00E94BF0603
:10037000DF91CF910895CF93DF93EC018D858F3F6F
:1003800059F061E00E9404078D8560E00E944307F8
:1003900088EC90E00E94BF06DF91CF910895CF9244
:1003A000DF92EF92FF920F931F93DF93CF93CDB71E
:1003B000DEB7A0970FB6F894DEBF0FBECDBF7C01AD
:1003C0006B01042F842F8150823020F4C7010E94DA
:1003D000A70103C0C7010E94BB01D701ED91FC91A9
:1003E0000190F081E02DC701B6010995C7010E9477
:1003F000BB01023071F5D701ED91FC910190F081C4
:10040000E02DC7018E010F5F1F4FB801099540E035
:10041000B8011AC0E42FF0E0EE0FFF1F86010E0FA7
:100420001F1FE60FF71FD7011E962D913C911F97B6
:1004300080819181281B390BF80180819181820F85
:10044000931F918380834F5FD7011C968C9148172F
:1004500008F3A0960FB6F894DEBF0FBECDBFCF91C4
:10046000DF911F910F91FF90EF90DF90CF90089553
:100470009F92AF92BF92CF92DF92EF92FF920F9333
:100480001F93CF93DF93EC01162F072F942E82E05A
:10049000481711F0442351F48E819F81892B09F470
:1004A000A5C088859985892B09F4A0C0892D815024
:1004B000823050F48A819B81892B09F497C08C810A
:1004C0009D81892B09F492C0CE01612F702F492D97
:1004D0000E94CF01812F902F9C015901CC24DD2453
:1004E00000E010E07DC0E1E09E1669F4EC81FD8142
:1004F000E00FF11F20813181EA81FB81E00FF11FC4
:10050000408151813DC0AE81BF81992059F4E88579
:10051000F985E00FF11F20813181A00FB11F4D91AE
:100520005C912EC0A00FB11F8D919C91EA81FB813F
:10053000E00FF11F20813181EE85FF85821793073F
:1005400010F4AF0105C0A9014E0F5F1F481B590BE6
:10055000E885F985E00FF11F60817181EC81FD81F3
:10056000E00FF11F80819181EE85FF856817790783
:1005700010F49F0105C09C012E0F3F1F261B370B57
:100580007901E41AF50A09F1F5016081718180E0D1
:1005900090E09A0140E050E0621B730B840B950BD6
:1005A00028EE33E040E050E00E944F0C970140E01D
:1005B00050E00E94900C2C523140F3E0293E3F075E
:1005C00014F028EE33E037FF02C020E030E0F50100
:1005D000219331935F010894C11CD11C0E5F1F4F02
:1005E0008C8590E0C816D9060CF47DCFDF91CF91B1
:1005F0001F910F91FF90EF90DF90CF90BF90AF9041
:100600009F9008952F923F924F925F926F927F92A8
:100610008F929F92AF92BF92CF92DF92EF92FF9212
:100620000F931F93DF93CF9300D000D0CDB7DEB7E9
:100630008C01F62EE72E2A830E943802D8011C96E0
:10064000BC91B9832F2D3E2DC9018C015524442422
:100650006624772443011C821B82AA24BB246501E3
:1006600088EE282E83E0382E32C0F801E080F18039
:10067000FA81FF2321F091012E193F09790137E911
:10068000E316F10414F04424439487E4E816F104DB
:100690009CF0B701882777FD8095982FA6019501DA
:1006A0000E944F0C660E771E881E991EAB81BC817E
:1006B000AE0DBF1DBC83AB83539488EE93E0A0E0E6
:1006C000B0E0A80EB91ECA1EDB1E0E5F1F4F998137
:1006D000591658F2442021F5692F70E084EF91E01B
:1006E000DC016A9FC0016B9F900D7A9F900D1124D1
:1006F000845F914020914A0130914B0128173907BE
:100700001CF440E050E01AC088EE93E0689FA0011E
:10071000699F500D789F500D1124485E53400EC0C4
:10072000EB81FC819F0140E050E0C401B3010E94D5
:100730006E0CA90130934B0120934A01CA010F901E
:100740000F900F900F90CF91DF911F910F91FF901D
:10075000EF90DF90CF90BF90AF909F908F907F9061
:100760006F905F904F903F902F9008956F927F927F
:100770008F929F92AF92BF92CF92DF92FF920F9390
:100780001F93CF93DF93EC013B018A859B85892BD7
:1007900009F473C0FF241CC00F2D10E0F801EE0F08
:1007A000FF1FE60DF71D8E859F8591838083EA8567
:1007B000FB85E00FF11F808161E00E944307EA851D
:1007C000FB85E00FF11F808161E00E940407F39434
:1007D0008C85F81608F38AE090E00E94BF06FF249B
:1007E00013C00F2D10E0EA85FB85E00FF11F80811B
:1007F00060E00E940407EA85FB85E00FF11F80811D
:1008000060E00E944307F3948C85F81650F30E9431
:1008100040065B016C0122C00E9440064B018A1811
:100820009B08FF2418C00F2D10E0EA85FB85E00F20
:10083000F11F80810E949707892B61F4F801EE0F68
:10084000FF1FE60DF71D808191818816990610F42F
:1008500091828082F3948C85F81628F30E944006DA
:100860006A197B098C099D092E853F8540E050E07F
:10087000621773078407950778F2DF91CF911F9174
:100880000F91FF90DF90CF90BF90AF909F908F908F
:100890007F906F9008952F923F924F925F926F9248
:1008A0007F928F929F92AF92BF92CF92DF92EF9200
:1008B000FF920F931F93DF93CF93CDB7DEB7C3564D
:1008C000D0400FB6F894DEBF0FBECDBF7C015B01F8
:1008D0006A01A2962FAFA297DA018D919C91892B84
:1008E00011F5F701848590E0880F991F0E94EA07AF
:1008F000D6018D939C93009709F4DFC020E030E08F
:100900000CC0C901880F991FD601ED91FC91E80F29
:10091000F91F118210822F5F3F4FF701848590E00D
:100920002817390774F3D5018D919C91892B89F093
:1009300000E010E03E010894611C711C71E4272E58
:10094000312C2C0E3D1E61E2462E512C4C0E5D1EAC
:1009500028C0F701848590E0880F991F0E94EA075C
:10096000D5018D939C93009709F4A7C020E030E057
:1009700011C0C901880F991FD501ED91FC91E80FB5
:10098000F91FD7011E968D919C911F9791838083AB
:100990002F5F3F4FF701848590E0281739074CF30C
:1009A000C7CFC701B301A2964FADA2970E94CF0156
:1009B000D7011C968C91882E9924A101F301A4964D
:1009C0005FAE4EAEA49760E070E034C00115110533
:1009D00059F0A496AEADBFADA4972D913C91808106
:1009E00091812817390758F480819181A496AEAD82
:1009F000BFADA4978D939C930115110541F0DA01C9
:100A00002D913C91808191818217930728F48081F8
:100A10009181DA018D939C936F5F7F4F4E5F5F4FA3
:100A20003296A4968EAD9FADA4970296A4969FAFE2
:100A30008EAFA497681579054CF20F5F1F4F0A30EF
:100A4000110509F0AECF40E050E020E030E08E012B
:100A50000F5B1F4FBE016F5D7F4F28C0F801E20F93
:100A6000F31F80809180F601A081B181A20FB31F96
:100A70008D919C9111978815990510F48D929C92F7
:100A8000FB01E20FF31F80809180F501A081B1810D
:100A9000A20FB31F8D919C9111978816990610F49F
:100AA0008D929C924F5F5F4F2E5F3F4FD7011C96F8
:100AB0008C9190E0481759078CF2CD59DF4F0FB653
:100AC000F894DEBF0FBECDBFCF91DF911F910F9184
:100AD000FF90EF90DF90CF90BF90AF909F908F905E
:100AE0007F906F905F904F903F902F9008951F934D
:100AF000CF93DF93EC01162F862F8150823050F474
:100B0000BE016E5F7F4FAE014C5F5F4FCE0121E0B3
:100B10000E944B04123011F0112349F4AE01485FDA
:100B20005F4FCE012696BE0120E00E944B04DF916C
:100B3000CF911F910895FF920F931F93CF93DF934F
:100B4000EC018B01F22E1B821A821D821C821F82F5
:100B50001E8219861886413118F080E18C8701C009
:100B60004C878A859B85892B11F090E014C08C8579
:100B700090E00E94EA079B878A870097B1F70FC031
:100B8000E92FF0E0AA85BB85AE0FBF1FE00FF11F74
:100B900080818C939F5F8C85981790F3FD86DF9101
:100BA000CF911F910F91FF900895CF92DF92EF9216
:100BB000FF920F937C016901202F82E191E0F70100
:100BC0009183808313821282158214821782168287
:100BD0001186108613861286C7010E949B05F701B5
:100BE000D786C6860F91FF90EF90DF90CF90089543
:100BF0001F920F920FB60F9211242F933F938F9352
:100C00009F93AF93BF938091500190915101A09118
:100C10005201B0915301309154010196A11DB11DB3
:100C2000232F2D5F2D3720F02D570196A11DB11DCB
:100C3000209354018093500190935101A09352014D
:100C4000B093530180914C0190914D01A0914E01C0
:100C5000B0914F010196A11DB11D80934C0190935D
:100C60004D01A0934E01B0934F01BF91AF919F9161
:100C70008F913F912F910F900FBE0F901F9018955D
:100C80009FB7F89420914C0130914D0140914E0155
:100C900050914F0186B5A89B06C08F3F21F02F5F72
:100CA0003F4F4F4F5F4F9FBF542F432F322F22276D
:100CB000280F311D411D511D82E0220F331F441F9B
:100CC000551F8A95D1F7B901CA0108959B01AC015E
:100CD0007FB7F89480914C0190914D01A0914E0105
:100CE000B0914F0166B5A89B05C06F3F19F0019602
:100CF000A11DB11D7FBFBA2FA92F982F8827860F5E
:100D0000911DA11DB11D62E0880F991FAA1FBB1F75
:100D10006A95D1F7BC012DC0FFB7F89480914C01C2
:100D200090914D01A0914E01B0914F01E6B5A89B65
:100D300005C0EF3F19F00196A11DB11DFFBFBA2FED
:100D4000A92F982F88278E0F911DA11DB11DE2E0BC
:100D5000880F991FAA1FBB1FEA95D1F7861B970B17
:100D6000885E9340C8F22150304040405040685166
:100D70007C4F211531054105510571F60895019704
:100D800039F0880F991F880F991F02970197F1F783
:100D90000895789484B5826084BD84B5816084BDF3
:100DA00085B5826085BD85B5816085BDEEE6F0E0E4
:100DB000808181608083E1E8F0E010828081826040
:100DC0008083808181608083E0E8F0E080818160C1
:100DD0008083E1EBF0E0808184608083E0EBF0E0F1
:100DE000808181608083EAE7F0E080818460808395
:100DF000808182608083808181608083808180683F
:100E000080831092C1000895CF93DF93482F50E064
:100E1000CA0186569F4FFC0134914A575F4FFA0131
:100E20008491882369F190E0880F991FFC01E859AB
:100E3000FF4FA591B491FC01EE58FF4FC591D4919D
:100E4000662351F42FB7F8948C91932F90958923B2
:100E50008C93888189230BC0623061F42FB7F8949A
:100E60008C91932F909589238C938881832B8883F1
:100E70002FBF06C09FB7F8948C91832B8C939FBF94
:100E8000DF91CF910895482F50E0CA0182559F4FBE
:100E9000FC012491CA0186569F4FFC0194914A5748
:100EA0005F4FFA013491332309F440C0222351F1FA
:100EB000233071F0243028F42130A1F0223011F5D4
:100EC00014C02630B1F02730C1F02430D9F404C06A
:100ED000809180008F7703C0809180008F7D809308
:100EE000800010C084B58F7702C084B58F7D84BD2B
:100EF00009C08091B0008F7703C08091B0008F7DD2
:100F00008093B000E32FF0E0EE0FFF1FEE58FF4F8D
:100F1000A591B4912FB7F894662321F48C91909504
:100F2000892302C08C91892B8C932FBF0895682F41
:100F300070E0CB0182559F4FFC012491CB01865676
:100F40009F4FFC0144916A577F4FFB019491992375
:100F500019F420E030E03CC0222351F1233071F03D
:100F6000243028F42130A1F0223011F514C02630AD
:100F7000B1F02730C1F02430D9F404C08091800052
:100F80008F7703C0809180008F7D8093800010C098
:100F900084B58F7702C084B58F7D84BD09C08091F0
:100FA000B0008F7703C08091B0008F7D8093B00038
:100FB000892F90E0880F991F84589F4FFC01A591BD
:100FC000B4918C9120E030E0842311F021E030E0F6
:100FD000C90108950F931F93CF93DF93BC01823013
:100FE000910510F462E070E0E0910102F0910202DC
:100FF00040E050E0A0E0B0E024C0808191818617FD
:101000009707D0F08617970771F482819381109724
:1010100029F013969C938E9312972CC09093020202
:101020008093010227C04115510519F084179507D7
:1010300018F48D01AC01EF01DF01828193819C01E5
:10104000F9013097D1F641155105F9F0CA01861B17
:10105000970B8430910580F48A819B8101151105DD
:1010600021F0F8019383828304C09093020280935D
:101070000102FE01329645C0FE01E80FF91F61939F
:1010800071930297998388833CC08091FF0190916E
:101090000002892B41F48091020190910301909309
:1010A00000028093FF014091040150910501411518
:1010B000510541F44DB75EB7809100019091010157
:1010C000481B590B2091FF0130910002241735076E
:1010D000B0F4CA01821B930B8617970780F0AB010F
:1010E0004E5F5F4F8417950750F0420F531F509388
:1010F00000024093FF01F9016193719302C0E0E0A7
:10110000F0E0CF01DF91CF911F910F910895CF9320
:10111000DF939C01009709F48FC0EC0122971B829A
:101120001A8260910102709102026115710581F4C9
:1011300088819981820F931F2091FF0130910002D5
:101140002817390739F5D0930002C093FF0174C006
:10115000DB0140E050E0AC17BD0708F1BB83AA8378
:10116000FE0121913191E20FF31FAE17BF0779F411
:101170008D919C911197280F391F2E5F3F4F398316
:10118000288312968D919C9113979B838A83411596
:10119000510571F4D0930202C09301024DC0129622
:1011A0008D919C911397AD01009711F0DC01D3CF85
:1011B000DA011396DC93CE931297FA0121913191C3
:1011C000E20FF31FCE17DF0769F488819981280F9A
:1011D000391F2E5F3F4FFA01318320838A819B8123
:1011E00093838283E0E0F0E0DB0112968D919C9185
:1011F0001397009719F0BC01FD01F6CFAB014E5FCC
:101200005F4FDB018D919C91840F951F2091FF0111
:10121000309100022817390779F4309729F4109299
:1012200002021092010202C0138212824250504008
:10123000509300024093FF01DF91CF9108950895EC
:101240001F920F920FB60F9211242F933F934F933B
:101250008F939F93EF93FF938091C00082FD1DC0F9
:101260004091C60020919501309196012F5F3F4F2C
:101270002F7330708091970190919801281739074A
:1012800071F0E0919501F0919601EB5AFE4F408389
:10129000309396012093950102C08091C600FF9182
:1012A000EF919F918F914F913F912F910F900FBE92
:1012B0000F901F901895E091E901F091EA01E05C30
:1012C000FF4F8191919120813181821B930B8F730C
:1012D0009070892B11F00E941F0908951F920F92A0
:1012E0000FB60F9211242F933F938F939F93EF93F9
:1012F000FF932091D9013091DA018091DB01909127
:10130000DC012817390731F48091C1008F7D80936B
:10131000C10014C0E091DB01F091DC01E756FE4F03
:1013200020818091DB019091DC0101968F73907098
:101330009093DC018093DB012093C600FF91EF9135
:101340009F918F913F912F910F900FBE0F901F9003
:101350001895AF92BF92DF92EF92FF920F931F9377
:10136000CF93DF93EC017A018B01DD24403081EED5
:10137000580780E0680780E0780711F0DD24D394F7
:1013800091E0A92EB12CEC89FD89DD2069F0C50121
:1013900008A002C0880F991F0A94E2F7808360E0DA
:1013A00079E08DE390E005C0108260E874E88EE19A
:1013B00090E0A80197010E946E0C215030404040FF
:1013C0005040569547953795279580E1203038074E
:1013D00020F0DD2011F0DD24D6CFE889F9893083B3
:1013E000EA89FB89208319A2EE89FF89408121E0E7
:1013F00030E0C9010C8C02C0880F991F0A94E2F7F3
:10140000482B4083EE89FF894081C9010D8C02C0C1
:10141000880F991F0A94E2F7482B4083EE89FF89D1
:101420004081C9010E8C02C0880F991F0A94E2F70F
:10143000482B4083EE89FF8980810F8C02C0220FE8
:10144000331F0A94E2F7209528232083DF91CF9160
:101450001F910F91FF90EF90DF90BF90AF90089594
:10146000DC011C96ED91FC911D97E05CFF4F2191F2
:10147000319180819181281B390B2F733070C90104
:101480000895DC011C96ED91FC911D97E05CFF4FE7
:1014900020813181E054F040DF01AE5BBF4F8D9180
:1014A0009C9111972817390719F42FEF3FEF07C0C8
:1014B0008D919C91E80FF91F8081282F30E0C901A0
:1014C0000895DC011C96ED91FC911D97E05CFF4FA7
:1014D00020813181E054F040DF01AE5BBF4F8D9140
:1014E0009C9111972817390719F42FEF3FEF10C07F
:1014F0008D919C911197E80FF91F20818D919C91FE
:10150000119701968F73907011969C938E9330E093
:10151000C9010895DC0191968C919197882339F047
:101520005496ED91FC915597808186FFF9CF919665
:101530001C920895CF93DF93EC01EE85FF85E05C6C
:10154000FF4F20813181E054F0402F5F3F4F2F73D8
:101550003070DF01AE5BBF4F8D919C9111972817C2
:101560003907D1F3E05CFF4F80819181E054F04076
:10157000E80FF91F6083EE85FF85E05CFF4F318344
:101580002083EE89FF89208181E090E00F8C02C0EA
:10159000880F991F0A94E2F7282B208381E089A302
:1015A000EC89FD8980818064808381E090E0DF9117
:1015B000CF9108951092E0011092DF0188EE93E040
:1015C000A0E0B0E08093E1019093E201A093E301F9
:1015D000B093E4018EE191E09093DE018093DD0110
:1015E00085E591E09093EA018093E90189E991E032
:1015F0009093EC018093EB0185EC90E09093EE01E9
:101600008093ED0184EC90E09093F0018093EF01E2
:1016100080EC90E09093F2018093F10181EC90E0F6
:101620009093F4018093F30182EC90E09093F601A3
:101630008093F50186EC90E09093F8018093F70198
:1016400084E08093F90183E08093FA0187E080933E
:10165000FB0185E08093FC0181E08093FD0108950A
:10166000CF93DF930E94C9060E940D01CBE5D9E01C
:101670000E94DB002097E1F30E945B09F9CF0895F7
:10168000CF92DF92EF92FF920F931F93CF93DF934E
:101690007C016B018A01C0E0D0E00FC0D6016D91E2
:1016A0006D01D701ED91FC910190F081E02DC70112
:1016B0000995C80FD91F015010400115110571F788
:1016C000CE01DF91CF911F910F91FF90EF90DF90AE
:1016D000CF900895DC01ED91FC910190F081E02D17
:1016E00009950895EF92FF920F931F938C01DC01EF
:1016F000ED91FC910190F081E02D6DE009957C0168
:10170000D801ED91FC910190F081E02DC8016AE0D3
:1017100009959C012E0D3F1DC9011F910F91FF904E
:10172000EF900895CF93DF93EC016115710519F4E3
:1017300020E030E00FC0DB010D900020E9F71197A9
:10174000A61BB70BE881F9810280F381E02DAD0182
:1017500009959C01C901DF91CF9108954F925F9245
:101760007F928F929F92AF92BF92CF92DF92EF9231
:10177000FF920F931F93DF93CF93CDB7DEB7A1975F
:101780000FB6F894DEBF0FBECDBF2C01742ECB0177
:10179000223008F42AE019A231E2C32ED12CCC0E5B
:1017A000DD1E822E9924AA24BB24672D752FA50146
:1017B00094010E946E0C79018A01C801B701A5014C
:1017C00094010E944F0C472D461B0894C108D10874
:1017D0004A3014F4405D01C0495CF6014083E114D5
:1017E000F1040105110521F07E2C5F2DC801DDCF2C
:1017F000C201B6010E94920BA1960FB6F894DEBF0B
:101800000FBECDBFCF91DF911F910F91FF90EF9051
:10181000DF90CF90BF90AF909F908F907F905F9020
:101820004F900895DC012115310541F4ED91FC91B3
:101830000190F081E02D642F099508950E94AE0B70
:101840000895EF92FF920F931F939A017B0100E09E
:1018500010E0B801A7010E94120C1F910F91FF9098
:10186000EF900895CF92DF92EF92FF920F931F9324
:101870006C017B019A0100E010E0B801A7010E9411
:10188000120C8C01C6010E94720B080F191FC801AF
:101890001F910F91FF90EF90DF90CF900895629F7E
:1018A000D001739FF001829FE00DF11D649FE00D58
:1018B000F11D929FF00D839FF00D749FF00D659FB9
:1018C000F00D9927729FB00DE11DF91F639FB00DB8
:1018D000E11DF91FBD01CF0111240895A1E21A2EC7
:1018E000AA1BBB1BFD010DC0AA1FBB1FEE1FFF1FC4
:1018F000A217B307E407F50720F0A21BB30BE40B14
:10190000F50B661F771F881F991F1A9469F760955A
:101910007095809590959B01AC01BD01CF01089514
:1019200097FB092E05260ED057FD04D0D7DF0AD02D
:10193000001C38F450954095309521953F4F4F4FFE
:101940005F4F0895F6F790958095709561957F4F5C
:101950008F4F9F4F0895EE0FFF1F0590F491E02DDC
:10196000099410E0C6ECD0E004C0FE010E94AD0C6A
:0C1970002296C83CD107C9F7F894FFCFBD
:10197C00800003020000131211100F0E0B0C00005C
:10198C000000B603000000003F0B000000009A0AA4
:0A199C00400B300A610A410A8A0A72
:00000001FF
